{
  "address": "0x9A383738Adb81486c43A6ab38F551AC679c98404",
  "abi": [
    {
      "inputs": [],
      "stateMutability": "nonpayable",
      "type": "constructor"
    },
    {
      "inputs": [],
      "name": "DEFAULT_PARAMS",
      "outputs": [
        {
          "internalType": "bytes",
          "name": "",
          "type": "bytes"
        }
      ],
      "stateMutability": "view",
      "type": "function"
    },
    {
      "inputs": [
        {
          "internalType": "bytes",
          "name": "params",
          "type": "bytes"
        }
      ],
      "name": "M",
      "outputs": [
        {
          "internalType": "uint256",
          "name": "",
          "type": "uint256"
        },
        {
          "internalType": "uint256",
          "name": "",
          "type": "uint256"
        },
        {
          "internalType": "uint256",
          "name": "",
          "type": "uint256"
        },
        {
          "internalType": "address",
          "name": "",
          "type": "address"
        },
        {
          "internalType": "uint256",
          "name": "",
          "type": "uint256"
        },
        {
          "internalType": "uint256",
          "name": "",
          "type": "uint256"
        }
      ],
      "stateMutability": "pure",
      "type": "function"
    }
  ],
  "transactionHash": "0x3fcb0b7ddc4adbdc36703865058626e752af895aea6200755c1c80d4733c30ff",
  "args": [],
  "numDeployments": 1,
  "solcInputHash": "fc8d5b1859b94893183c865f7c1681fb",
  "bytecode": "0x608060405234801561001057600080fd5b50610744806100206000396000f3fe608060405234801561001057600080fd5b50600436106100365760003560e01c80633f9e564b1461003b5780634242b375146100b8575b600080fd5b6100436101a6565b6040805160208082528351818301528351919283929083019185019080838360005b8381101561007d578181015183820152602001610065565b50505050905090810190601f1680156100aa5780820380516001836020036101000a031916815260200191505b509250505060405180910390f35b61015e600480360360208110156100ce57600080fd5b8101906020810181356401000000008111156100e957600080fd5b8201836020820111156100fb57600080fd5b8035906020019184600183028401116401000000008311171561011d57600080fd5b91908080601f0160208091040260200160405190810160405280939291908181526020018383808284376000920191909152509295506101de945050505050565b6040805196875260208701959095528585019390935273ffffffffffffffffffffffffffffffffffffffff9091166060850152608084015260a0830152519081900360c00190f35b6040518060400160405280601e81526020017e0900080007000000000000000000000000000000000000dead00060005000081525081565b600080600080600080865160001415610229576040518060400160405280601e81526020017e0900080007000000000000000000000000000000000000dead00060005000081525096505b601e87015161ffff60e082901c81169060d083901c81169060c084901c811690602085901c90601086901c8116908616851580159061026d57506127108661ffff16105b6102d857604080517f08c379a000000000000000000000000000000000000000000000000000000000815260206004820152600a60248201527f696e76616c696420703100000000000000000000000000000000000000000000604482015290519081900360640190fd5b60008561ffff161180156102f157506127108561ffff16105b61035c57604080517f08c379a000000000000000000000000000000000000000000000000000000000815260206004820152600a60248201527f696e76616c696420703200000000000000000000000000000000000000000000604482015290519081900360640190fd5b60008461ffff1611801561037557506127108461ffff16105b6103e057604080517f08c379a000000000000000000000000000000000000000000000000000000000815260206004820152600a60248201527f696e76616c696420703300000000000000000000000000000000000000000000604482015290519081900360640190fd5b73ffffffffffffffffffffffffffffffffffffffff831661046257604080517f08c379a000000000000000000000000000000000000000000000000000000000815260206004820152600a60248201527f696e76616c696420703400000000000000000000000000000000000000000000604482015290519081900360640190fd5b60008261ffff1611801561047b57506127108261ffff16105b6104e657604080517f08c379a000000000000000000000000000000000000000000000000000000000815260206004820152600a60248201527f696e76616c696420703500000000000000000000000000000000000000000000604482015290519081900360640190fd5b60008161ffff161180156104ff57506127108161ffff16105b61056a57604080517f08c379a000000000000000000000000000000000000000000000000000000000815260206004820152600a60248201527f696e76616c696420703600000000000000000000000000000000000000000000604482015290519081900360640190fd5b61057e61ffff8716655af3107a40006105fd565b61059261ffff8716655af3107a40006105fd565b6105b2655af3107a40006105ac61ffff8916612710610679565b906105fd565b856105c761ffff8716655af3107a40006105fd565b6105e1655af3107a40006105ac61ffff8916612710610679565b9c509c509c509c509c509c505050505050505091939550919395565b60008261060c57506000610673565b8282028284828161061957fe5b0414610670576040517f08c379a00000000000000000000000000000000000000000000000000000000081526004018080602001828103825260218152602001806106ee6021913960400191505060405180910390fd5b90505b92915050565b60008282018381101561067057604080517f08c379a000000000000000000000000000000000000000000000000000000000815260206004820152601b60248201527f536166654d6174683a206164646974696f6e206f766572666c6f770000000000604482015290519081900360640190fdfe536166654d6174683a206d756c7469706c69636174696f6e206f766572666c6f77a2646970667358221220579aacc459427820af9cbcd1c41b98920817ec9e10a043b7a46fd0c7ce867bc364736f6c634300060c0033",
  "devdoc": {
    "kind": "dev",
    "methods": {},
    "version": 1
  },
  "userdoc": {
    "kind": "user",
    "methods": {},
    "version": 1
  },
  "storageLayout": {
    "storage": [],
    "types": null
  }
}